{
  "contractName": "ChesSR_Old",
  "abi": [
    {
      "inputs": [],
      "stateMutability": "payable",
      "type": "constructor"
    },
    {
      "inputs": [],
      "name": "owner",
      "outputs": [
        {
          "internalType": "address",
          "name": "",
          "type": "address"
        }
      ],
      "stateMutability": "view",
      "type": "function"
    },
    {
      "inputs": [
        {
          "internalType": "address",
          "name": "newOwner",
          "type": "address"
        }
      ],
      "name": "changeOwner",
      "outputs": [],
      "stateMutability": "nonpayable",
      "type": "function"
    },
    {
      "inputs": [],
      "name": "deposit",
      "outputs": [
        {
          "internalType": "bool",
          "name": "",
          "type": "bool"
        }
      ],
      "stateMutability": "payable",
      "type": "function"
    },
    {
      "inputs": [
        {
          "internalType": "address payable",
          "name": "receiver",
          "type": "address"
        },
        {
          "internalType": "uint256",
          "name": "amount",
          "type": "uint256"
        }
      ],
      "name": "transfer",
      "outputs": [
        {
          "internalType": "bool",
          "name": "",
          "type": "bool"
        }
      ],
      "stateMutability": "nonpayable",
      "type": "function"
    },
    {
      "inputs": [],
      "name": "checkBalance",
      "outputs": [
        {
          "internalType": "uint256",
          "name": "",
          "type": "uint256"
        }
      ],
      "stateMutability": "view",
      "type": "function"
    }
  ],
  "bytecode": "0x6080604052336000806101000a81548173ffffffffffffffffffffffffffffffffffffffff021916908373ffffffffffffffffffffffffffffffffffffffff1602179055506105c0806100536000396000f3fe60806040526004361061004a5760003560e01c80638da5cb5b1461004f578063a6f9dae11461007a578063a9059cbb146100a3578063c71daccb146100e0578063d0e30db01461010b575b600080fd5b34801561005b57600080fd5b50610064610129565b6040516100719190610314565b60405180910390f35b34801561008657600080fd5b506100a1600480360381019061009c9190610360565b61014d565b005b3480156100af57600080fd5b506100ca60048036038101906100c59190610401565b61021e565b6040516100d7919061045c565b60405180910390f35b3480156100ec57600080fd5b506100f56102b4565b6040516101029190610486565b60405180910390f35b6101136102bc565b604051610120919061045c565b60405180910390f35b60008054906101000a900473ffffffffffffffffffffffffffffffffffffffff1681565b60008054906101000a900473ffffffffffffffffffffffffffffffffffffffff1673ffffffffffffffffffffffffffffffffffffffff163373ffffffffffffffffffffffffffffffffffffffff16146101db576040517f08c379a00000000000000000000000000000000000000000000000000000000081526004016101d2906104fe565b60405180910390fd5b806000806101000a81548173ffffffffffffffffffffffffffffffffffffffff021916908373ffffffffffffffffffffffffffffffffffffffff16021790555050565b600081471015610263576040517f08c379a000000000000000000000000000000000000000000000000000000000815260040161025a9061056a565b60405180910390fd5b8273ffffffffffffffffffffffffffffffffffffffff166108fc839081150290604051600060405180830381858888f193505050501580156102a9573d6000803e3d6000fd5b506001905092915050565b600047905090565b600060633410156102cc57600080fd5b6001905090565b600073ffffffffffffffffffffffffffffffffffffffff82169050919050565b60006102fe826102d3565b9050919050565b61030e816102f3565b82525050565b60006020820190506103296000830184610305565b92915050565b600080fd5b61033d816102f3565b811461034857600080fd5b50565b60008135905061035a81610334565b92915050565b6000602082840312156103765761037561032f565b5b60006103848482850161034b565b91505092915050565b6000610398826102d3565b9050919050565b6103a88161038d565b81146103b357600080fd5b50565b6000813590506103c58161039f565b92915050565b6000819050919050565b6103de816103cb565b81146103e957600080fd5b50565b6000813590506103fb816103d5565b92915050565b600080604083850312156104185761041761032f565b5b6000610426858286016103b6565b9250506020610437858286016103ec565b9150509250929050565b60008115159050919050565b61045681610441565b82525050565b6000602082019050610471600083018461044d565b92915050565b610480816103cb565b82525050565b600060208201905061049b6000830184610477565b92915050565b600082825260208201905092915050565b7f4f6e6c79204f776e65722063616e206368616e6765206f776e65722021212100600082015250565b60006104e8601f836104a1565b91506104f3826104b2565b602082019050919050565b60006020820190508181036000830152610517816104db565b9050919050565b7f496e73756666696369656e742066756e64730000000000000000000000000000600082015250565b60006105546012836104a1565b915061055f8261051e565b602082019050919050565b6000602082019050818103600083015261058381610547565b905091905056fea2646970667358221220aff570a9ee945875d124dfc99f85514b7d24ffffd2044b8760f5cf5e6e46a9b264736f6c634300080a0033",
  "immutableReferences": {},
  "source": "pragma solidity ^0.8.0;\n\ncontract ChesSR_Old {\n    // defining a owner\n    address public owner;\n\n    // making a constructor payable makes contract eligible to hold ether\n    constructor() payable{\n        //following line is owner is the same address which deploying on blockchain\n        owner = msg.sender;\n    }\n\n    //change owner. FYI put a condition so that only owner himself can assign someone as owner\n    function changeOwner(address newOwner) public {\n        //checking that this method or task can be done by owner only\n        require(msg.sender == owner, \"Only Owner can change owner !!!\");\n        owner = newOwner;\n    }\n\n    //modifier are like sub function\n    modifier minAmountCheck(){\n        //setting a condition that bet should be more than 99 wei.\n        require(msg.value >= 99 wei);\n        //following line must be written in the end in modifier (which kinda of tells it's modifier)\n        _;\n    }\n\n    //deposit funds to contract. Calling this method automatically deposit ether in to contract\n    //whatever value we give it automatically goes in msg.value and calling this method makes the deeposit\n    function deposit() external payable minAmountCheck() returns(bool){\n        return true;\n    }\n\n    //funds transfer to specific address from contract\n    function transfer(address payable receiver, uint256 amount) public returns (bool){\n        //checking if transfer funds are not greater than contract funds\n        require(address(this).balance >= amount, \"Insufficient funds\");\n        receiver.transfer(amount);\n        return true;\n    }\n\n    //Check contract balance\n    function checkBalance() public view returns (uint256){\n        return (address(this).balance);\n    }\n\n}\n",
  "sourcePath": "/Users/happie/hell/workspace/solidity/contracts/contracts/chesSR/ChesSR_Old.sol",
  "compiler": {
    "name": "solc",
    "version": "0.8.10+commit.fc410830.Emscripten.clang"
  },
  "schemaVersion": "3.4.3",
  "updatedAt": "2021-12-01T06:06:51.510Z",
  "devdoc": {
    "kind": "dev",
    "methods": {},
    "version": 1
  },
  "userdoc": {
    "kind": "user",
    "methods": {},
    "version": 1
  }
}