{
  "contractName": "ChesSR",
  "abi": [
    {
      "inputs": [],
      "stateMutability": "payable",
      "type": "constructor"
    },
    {
      "inputs": [
        {
          "internalType": "string",
          "name": "",
          "type": "string"
        }
      ],
      "name": "contests",
      "outputs": [
        {
          "internalType": "string",
          "name": "roomId",
          "type": "string"
        },
        {
          "internalType": "uint256",
          "name": "betAmount",
          "type": "uint256"
        }
      ],
      "stateMutability": "view",
      "type": "function"
    },
    {
      "inputs": [],
      "name": "owner",
      "outputs": [
        {
          "internalType": "address",
          "name": "",
          "type": "address"
        }
      ],
      "stateMutability": "view",
      "type": "function"
    },
    {
      "inputs": [
        {
          "internalType": "string",
          "name": "",
          "type": "string"
        }
      ],
      "name": "roomIdExistence",
      "outputs": [
        {
          "internalType": "bool",
          "name": "",
          "type": "bool"
        }
      ],
      "stateMutability": "view",
      "type": "function"
    },
    {
      "inputs": [
        {
          "internalType": "address",
          "name": "newOwner",
          "type": "address"
        }
      ],
      "name": "changeOwner",
      "outputs": [],
      "stateMutability": "nonpayable",
      "type": "function"
    },
    {
      "inputs": [],
      "name": "getRoomList",
      "outputs": [
        {
          "components": [
            {
              "internalType": "string",
              "name": "roomId",
              "type": "string"
            },
            {
              "internalType": "uint256",
              "name": "betAmount",
              "type": "uint256"
            },
            {
              "internalType": "address payable[]",
              "name": "players",
              "type": "address[]"
            }
          ],
          "internalType": "struct ChesSR.Room[]",
          "name": "",
          "type": "tuple[]"
        }
      ],
      "stateMutability": "view",
      "type": "function"
    },
    {
      "inputs": [
        {
          "internalType": "string",
          "name": "roomId",
          "type": "string"
        },
        {
          "internalType": "uint256",
          "name": "betAmount",
          "type": "uint256"
        },
        {
          "internalType": "address payable",
          "name": "playerAddress",
          "type": "address"
        }
      ],
      "name": "deposit",
      "outputs": [
        {
          "internalType": "bool",
          "name": "",
          "type": "bool"
        }
      ],
      "stateMutability": "payable",
      "type": "function"
    },
    {
      "inputs": [
        {
          "internalType": "address payable",
          "name": "receiver",
          "type": "address"
        },
        {
          "internalType": "uint256",
          "name": "amount",
          "type": "uint256"
        }
      ],
      "name": "transfer",
      "outputs": [
        {
          "internalType": "bool",
          "name": "",
          "type": "bool"
        }
      ],
      "stateMutability": "nonpayable",
      "type": "function"
    },
    {
      "inputs": [],
      "name": "checkBalance",
      "outputs": [
        {
          "internalType": "uint256",
          "name": "",
          "type": "uint256"
        }
      ],
      "stateMutability": "view",
      "type": "function"
    }
  ],
  "bytecode": "0x6080604052336000806101000a81548173ffffffffffffffffffffffffffffffffffffffff021916908373ffffffffffffffffffffffffffffffffffffffff16021790555061150f806100536000396000f3fe60806040526004361061007b5760003560e01c8063c6e114131161004e578063c6e114131461014e578063c71daccb1461018c578063d6116cdf146101b7578063d63196e8146101e25761007b565b806378a1bda3146100805780638da5cb5b146100bd578063a6f9dae1146100e8578063a9059cbb14610111575b600080fd5b34801561008c57600080fd5b506100a760048036038101906100a29190610c43565b610212565b6040516100b49190610ca7565b60405180910390f35b3480156100c957600080fd5b506100d2610248565b6040516100df9190610d03565b60405180910390f35b3480156100f457600080fd5b5061010f600480360381019061010a9190610d4a565b61026c565b005b34801561011d57600080fd5b5061013860048036038101906101339190610deb565b61033d565b6040516101459190610ca7565b60405180910390f35b34801561015a57600080fd5b5061017560048036038101906101709190610c43565b6103d3565b604051610183929190610ec2565b60405180910390f35b34801561019857600080fd5b506101a1610495565b6040516101ae9190610ef2565b60405180910390f35b3480156101c357600080fd5b506101cc61049d565b6040516101d9919061113d565b60405180910390f35b6101fc60048036038101906101f7919061115f565b6106e8565b6040516102099190610ca7565b60405180910390f35b6001818051602081018201805184825260208301602085012081835280955050505050506000915054906101000a900460ff1681565b60008054906101000a900473ffffffffffffffffffffffffffffffffffffffff1681565b60008054906101000a900473ffffffffffffffffffffffffffffffffffffffff1673ffffffffffffffffffffffffffffffffffffffff163373ffffffffffffffffffffffffffffffffffffffff16146102fa576040517f08c379a00000000000000000000000000000000000000000000000000000000081526004016102f19061121a565b60405180910390fd5b806000806101000a81548173ffffffffffffffffffffffffffffffffffffffff021916908373ffffffffffffffffffffffffffffffffffffffff16021790555050565b600081471015610382576040517f08c379a000000000000000000000000000000000000000000000000000000000815260040161037990611286565b60405180910390fd5b8273ffffffffffffffffffffffffffffffffffffffff166108fc839081150290604051600060405180830381858888f193505050501580156103c8573d6000803e3d6000fd5b506001905092915050565b60038180516020810182018051848252602083016020850120818352809550505050505060009150905080600001805461040c906112d5565b80601f0160208091040260200160405190810160405280929190818152602001828054610438906112d5565b80156104855780601f1061045a57610100808354040283529160200191610485565b820191906000526020600020905b81548152906001019060200180831161046857829003601f168201915b5050505050908060010154905082565b600047905090565b60608060005b6002805490508110156106e0576000600282815481106104c6576104c5611307565b5b9060005260206000200180546104db906112d5565b80601f0160208091040260200160405190810160405280929190818152602001828054610507906112d5565b80156105545780601f1061052957610100808354040283529160200191610554565b820191906000526020600020905b81548152906001019060200180831161053757829003601f168201915b5050505050905060038160405161056b9190611372565b9081526020016040518091039020604051806060016040529081600082018054610594906112d5565b80601f01602080910402602001604051908101604052809291908181526020018280546105c0906112d5565b801561060d5780601f106105e25761010080835404028352916020019161060d565b820191906000526020600020905b8154815290600101906020018083116105f057829003601f168201915b5050505050815260200160018201548152602001600282018054806020026020016040519081016040528092919081815260200182805480156106a557602002820191906000526020600020905b8160009054906101000a900473ffffffffffffffffffffffffffffffffffffffff1673ffffffffffffffffffffffffffffffffffffffff168152602001906001019080831161065b575b5050505050815250508383815181106106c1576106c0611307565b5b60200260200101819052505080806106d8906113b8565b9150506104a3565b508091505090565b600083838360643410156106fb57600080fd5b600060038460405161070d9190611372565b9081526020016040518091039020905083816000019080519060200190610735929190610967565b5060008160010154141561075157828160010181905550610798565b80600101548314610797576040517f08c379a000000000000000000000000000000000000000000000000000000000815260040161078e9061144d565b60405180910390fd5b5b6002816002018054905010156108125780600201829080600181540180825580915050600190039060005260206000200160009091909190916101000a81548173ffffffffffffffffffffffffffffffffffffffff021916908373ffffffffffffffffffffffffffffffffffffffff16021790555061084d565b6040517f08c379a0000000000000000000000000000000000000000000000000000000008152600401610844906114b9565b60405180910390fd5b8060038560405161085e9190611372565b90815260200160405180910390206000820181600001908054610880906112d5565b61088b9291906109ed565b506001820154816001015560028201816002019080546108ac929190610a7a565b509050506001846040516108c09190611372565b908152602001604051809103902060009054906101000a900460ff16156108e657600080fd5b600284908060018154018082558091505060019003906000526020600020016000909190919091509080519060200190610921929190610967565b50600180856040516109339190611372565b908152602001604051809103902060006101000a81548160ff02191690831515021790555060019450505050509392505050565b828054610973906112d5565b90600052602060002090601f01602090048101928261099557600085556109dc565b82601f106109ae57805160ff19168380011785556109dc565b828001600101855582156109dc579182015b828111156109db5782518255916020019190600101906109c0565b5b5090506109e99190610acc565b5090565b8280546109f9906112d5565b90600052602060002090601f016020900481019282610a1b5760008555610a69565b82601f10610a2c5780548555610a69565b82800160010185558215610a6957600052602060002091601f016020900482015b82811115610a68578254825591600101919060010190610a4d565b5b509050610a769190610acc565b5090565b828054828255906000526020600020908101928215610abb5760005260206000209182015b82811115610aba578254825591600101919060010190610a9f565b5b509050610ac89190610acc565b5090565b5b80821115610ae5576000816000905550600101610acd565b5090565b6000604051905090565b600080fd5b600080fd5b600080fd5b600080fd5b6000601f19601f8301169050919050565b7f4e487b7100000000000000000000000000000000000000000000000000000000600052604160045260246000fd5b610b5082610b07565b810181811067ffffffffffffffff82111715610b6f57610b6e610b18565b5b80604052505050565b6000610b82610ae9565b9050610b8e8282610b47565b919050565b600067ffffffffffffffff821115610bae57610bad610b18565b5b610bb782610b07565b9050602081019050919050565b82818337600083830152505050565b6000610be6610be184610b93565b610b78565b905082815260208101848484011115610c0257610c01610b02565b5b610c0d848285610bc4565b509392505050565b600082601f830112610c2a57610c29610afd565b5b8135610c3a848260208601610bd3565b91505092915050565b600060208284031215610c5957610c58610af3565b5b600082013567ffffffffffffffff811115610c7757610c76610af8565b5b610c8384828501610c15565b91505092915050565b60008115159050919050565b610ca181610c8c565b82525050565b6000602082019050610cbc6000830184610c98565b92915050565b600073ffffffffffffffffffffffffffffffffffffffff82169050919050565b6000610ced82610cc2565b9050919050565b610cfd81610ce2565b82525050565b6000602082019050610d186000830184610cf4565b92915050565b610d2781610ce2565b8114610d3257600080fd5b50565b600081359050610d4481610d1e565b92915050565b600060208284031215610d6057610d5f610af3565b5b6000610d6e84828501610d35565b91505092915050565b6000610d8282610cc2565b9050919050565b610d9281610d77565b8114610d9d57600080fd5b50565b600081359050610daf81610d89565b92915050565b6000819050919050565b610dc881610db5565b8114610dd357600080fd5b50565b600081359050610de581610dbf565b92915050565b60008060408385031215610e0257610e01610af3565b5b6000610e1085828601610da0565b9250506020610e2185828601610dd6565b9150509250929050565b600081519050919050565b600082825260208201905092915050565b60005b83811015610e65578082015181840152602081019050610e4a565b83811115610e74576000848401525b50505050565b6000610e8582610e2b565b610e8f8185610e36565b9350610e9f818560208601610e47565b610ea881610b07565b840191505092915050565b610ebc81610db5565b82525050565b60006040820190508181036000830152610edc8185610e7a565b9050610eeb6020830184610eb3565b9392505050565b6000602082019050610f076000830184610eb3565b92915050565b600081519050919050565b600082825260208201905092915050565b6000819050602082019050919050565b600082825260208201905092915050565b6000610f5582610e2b565b610f5f8185610f39565b9350610f6f818560208601610e47565b610f7881610b07565b840191505092915050565b610f8c81610db5565b82525050565b600081519050919050565b600082825260208201905092915050565b6000819050602082019050919050565b610fc781610d77565b82525050565b6000610fd98383610fbe565b60208301905092915050565b6000602082019050919050565b6000610ffd82610f92565b6110078185610f9d565b935061101283610fae565b8060005b8381101561104357815161102a8882610fcd565b975061103583610fe5565b925050600181019050611016565b5085935050505092915050565b6000606083016000830151848203600086015261106d8282610f4a565b91505060208301516110826020860182610f83565b506040830151848203604086015261109a8282610ff2565b9150508091505092915050565b60006110b38383611050565b905092915050565b6000602082019050919050565b60006110d382610f0d565b6110dd8185610f18565b9350836020820285016110ef85610f29565b8060005b8581101561112b578484038952815161110c85826110a7565b9450611117836110bb565b925060208a019950506001810190506110f3565b50829750879550505050505092915050565b6000602082019050818103600083015261115781846110c8565b905092915050565b60008060006060848603121561117857611177610af3565b5b600084013567ffffffffffffffff81111561119657611195610af8565b5b6111a286828701610c15565b93505060206111b386828701610dd6565b92505060406111c486828701610da0565b9150509250925092565b7f4f6e6c79204f776e65722063616e206368616e6765206f776e65722021212100600082015250565b6000611204601f83610e36565b915061120f826111ce565b602082019050919050565b60006020820190508181036000830152611233816111f7565b9050919050565b7f496e73756666696369656e742066756e64730000000000000000000000000000600082015250565b6000611270601283610e36565b915061127b8261123a565b602082019050919050565b6000602082019050818103600083015261129f81611263565b9050919050565b7f4e487b7100000000000000000000000000000000000000000000000000000000600052602260045260246000fd5b600060028204905060018216806112ed57607f821691505b60208210811415611301576113006112a6565b5b50919050565b7f4e487b7100000000000000000000000000000000000000000000000000000000600052603260045260246000fd5b600081905092915050565b600061134c82610e2b565b6113568185611336565b9350611366818560208601610e47565b80840191505092915050565b600061137e8284611341565b915081905092915050565b7f4e487b7100000000000000000000000000000000000000000000000000000000600052601160045260246000fd5b60006113c382610db5565b91507fffffffffffffffffffffffffffffffffffffffffffffffffffffffffffffffff8214156113f6576113f5611389565b5b600182019050919050565b7f42657420416d6f756e74206973206e6f742073616d6500000000000000000000600082015250565b6000611437601683610e36565b915061144282611401565b602082019050919050565b600060208201905081810360008301526114668161142a565b9050919050565b7f526f6f6d20697320616c72656164792066696c6c656400000000000000000000600082015250565b60006114a3601683610e36565b91506114ae8261146d565b602082019050919050565b600060208201905081810360008301526114d281611496565b905091905056fea26469706673582212205e5c6c6b5c6d6751371538b84b685e2cdd50eb0051e4e9e21c69f9f7b25383b164736f6c634300080a0033",
  "immutableReferences": {},
  "source": "pragma solidity ^0.8.0;\n\ncontract ChesSR {\n    // defining a owner\n    address public owner;\n    mapping(string => bool) public roomIdExistence;\n    string[] roomIds;\n    //list of contestant\n    mapping(string => Room) public contests;\n\n    // making a constructor payable makes contract eligible to hold ether\n    constructor() payable{\n        //following line is owner is the same address which deploying on blockchain\n        owner = msg.sender;\n    }\n\n    //change owner. FYI put a condition so that only owner himself can assign someone as owner\n    function changeOwner(address newOwner) public {\n        //checking that this method or task can be done by owner only\n        require(msg.sender == owner, \"Only Owner can change owner !!!\");\n        owner = newOwner;\n    }\n\n    struct Room {\n        string roomId;\n        uint256 betAmount;\n        address payable[] players;\n    }\n\n    //get List of rooms\n    function getRoomList() public view returns (Room[] memory){\n        Room[] memory rooms ;\n        for (uint i=0;i<roomIds.length; i++){\n            string memory roomId = roomIds[i];\n            rooms[i]= contests[roomId];\n        }\n        return rooms;\n    }\n\n    //modifier are like sub function\n    modifier creatingRoom(string memory roomId,uint betAmount,address payable playerAddress){\n        require(msg.value >= 100 wei);\n\n        Room storage room = contests[roomId];\n        room.roomId = roomId;\n        if(room.betAmount == 0){\n            room.betAmount = betAmount;\n        } else{\n            if(betAmount!=room.betAmount){\n                revert(\"Bet Amount is not same\");\n            }\n        }\n\n        if(room.players.length < 2){\n            room.players.push(playerAddress);\n        } else{\n            revert(\"Room is already filled\");\n        }\n\n        contests[roomId] =room;\n        require(!roomIdExistence[roomId]);\n        roomIds.push(roomId);\n        roomIdExistence[roomId] = true;\n        _;\n    }\n\n    //deposit funds to contract. Calling this method automatically deposit ether in to contract\n    //whatever value we give it automatically goes in msg.value and calling this method makes the deposit\n    function deposit(string memory roomId, uint betAmount,address payable playerAddress) external payable creatingRoom(roomId, betAmount,playerAddress) returns (bool){\n        return true;\n    }\n\n    //funds transfer to specific address from contract\n    function transfer(address payable receiver, uint256 amount) public returns (bool){\n        //checking if transfer funds are not greater than contract funds\n        require(address(this).balance >= amount, \"Insufficient funds\");\n        receiver.transfer(amount);\n        return true;\n    }\n\n    //Check contract balance\n    function checkBalance() public view returns (uint256){\n        return (address(this).balance);\n    }\n\n}\n",
  "sourcePath": "/Users/happie/hell/workspace/solidity/contracts/contracts/chesSR/ChesSR.sol",
  "compiler": {
    "name": "solc",
    "version": "0.8.10+commit.fc410830.Emscripten.clang"
  },
  "schemaVersion": "3.4.3",
  "updatedAt": "2021-12-04T12:17:32.772Z",
  "devdoc": {
    "kind": "dev",
    "methods": {},
    "version": 1
  },
  "userdoc": {
    "kind": "user",
    "methods": {},
    "version": 1
  }
}