{
  "contractName": "PZCoin",
  "abi": [
    {
      "inputs": [],
      "stateMutability": "nonpayable",
      "type": "constructor"
    },
    {
      "inputs": [],
      "name": "getBalance",
      "outputs": [
        {
          "internalType": "int256",
          "name": "",
          "type": "int256"
        }
      ],
      "stateMutability": "view",
      "type": "function"
    },
    {
      "inputs": [
        {
          "internalType": "int256",
          "name": "amt",
          "type": "int256"
        }
      ],
      "name": "buyCoin",
      "outputs": [],
      "stateMutability": "nonpayable",
      "type": "function"
    },
    {
      "inputs": [
        {
          "internalType": "int256",
          "name": "amt",
          "type": "int256"
        }
      ],
      "name": "sellCoin",
      "outputs": [],
      "stateMutability": "nonpayable",
      "type": "function"
    }
  ],
  "bytecode": "0x608060405234801561001057600080fd5b50600080819055506102f2806100276000396000f3fe608060405234801561001057600080fd5b50600436106100415760003560e01c806312065fe014610046578063aaa2ee0014610064578063d0f79a8b14610080575b600080fd5b61004e61009c565b60405161005b91906100ec565b60405180910390f35b61007e60048036038101906100799190610138565b6100a5565b005b61009a60048036038101906100959190610138565b6100bc565b005b60008054905090565b806000546100b39190610194565b60008190555050565b806000546100ca9190610228565b60008190555050565b6000819050919050565b6100e6816100d3565b82525050565b600060208201905061010160008301846100dd565b92915050565b600080fd5b610115816100d3565b811461012057600080fd5b50565b6000813590506101328161010c565b92915050565b60006020828403121561014e5761014d610107565b5b600061015c84828501610123565b91505092915050565b7f4e487b7100000000000000000000000000000000000000000000000000000000600052601160045260246000fd5b600061019f826100d3565b91506101aa836100d3565b9250827f8000000000000000000000000000000000000000000000000000000000000000018212600084121516156101e5576101e4610165565b5b827f7fffffffffffffffffffffffffffffffffffffffffffffffffffffffffffffff01821360008412161561021d5761021c610165565b5b828203905092915050565b6000610233826100d3565b915061023e836100d3565b9250817f7fffffffffffffffffffffffffffffffffffffffffffffffffffffffffffffff0383136000831215161561027957610278610165565b5b817f80000000000000000000000000000000000000000000000000000000000000000383126000831216156102b1576102b0610165565b5b82820190509291505056fea26469706673582212201bdd3269a897e1a02690e7ee27a36e43bdcb29b269989293fb6811a42070190a64736f6c634300080a0033",
  "immutableReferences": {},
  "source": "pragma solidity ^0.8.0;\n\ncontract PZCoin{\n    int balance;\n\n    constructor() {\n        balance = 0;\n    }\n\n    function getBalance() view public returns(int){\n        return balance;\n    }\n\n    function buyCoin(int amt) public {\n        balance = balance + amt;\n    }\n\n    function sellCoin(int amt) public {\n        balance = balance - amt;\n    }\n}",
  "sourcePath": "/Users/happie/hell/workspace/solidity/contracts/contracts/pzcoin/PZCoin.sol",
  "compiler": {
    "name": "solc",
    "version": "0.8.10+commit.fc410830.Emscripten.clang"
  },
  "schemaVersion": "3.4.3",
  "updatedAt": "2021-12-01T06:06:51.513Z",
  "devdoc": {
    "kind": "dev",
    "methods": {},
    "version": 1
  },
  "userdoc": {
    "kind": "user",
    "methods": {},
    "version": 1
  }
}